:020000040800F2
:100000007036002099010008EF120008F111000875
:10001000ED1200088D0400084D17000800000000D4
:1000200000000000000000000000000001010008C6
:100030008F0400080000000045010008F9120008C4
:10004000B3010008B3010008B3010008B3010008C0
:10005000B3010008B3010008B3010008B3010008B0
:10006000B3010008B3010008B3010008B3010008A0
:10007000B3010008B3010008B3010008B301000890
:10008000B3010008B3010008B3010008B301000880
:10009000B3010008B3010008B3010008B301000870
:1000A000B3010008B3010008B3010008B301000860
:1000B000B3010008B3010008B3010008B301000850
:1000C000B3010008B3010008B3010008B301000840
:1000D000B30100086D160008B3010008A916000856
:1000E000B3010008B3010008B3010008DFF80CD029
:1000F00000F0C4F800480047511B0008703600208B
:10010000224B19680868B0E8F00F80F30988BFF344
:100110006F8F4FF0000080F311884EF00D0E704786
:100120000000000006480068006880F3088862B696
:1001300061B6BFF34F8FBFF36F8F00DF00BF00BF0B
:1001400008ED00E0EFF30980BFF36F8F0F4B1A68E3
:1001500020E9F00F106008B54FF0500080F31188CF
:10016000BFF34F8FBFF36F8F02F012FD4FF000000F
:1001700080F31188BDE8084019680868B0E8F00FFE
:1001800080F30988BFF36F8F704700BF1400002011
:10019000EFF3058070470000064880470648004797
:1001A000FEE7FEE7FEE7FEE7FEE7FEE7FEE7FEE727
:1001B000FEE7FEE76F130008ED00000840EA0103C8
:1001C0009B0703D009E008C9121F08C0042AFAD20D
:1001D00003E011F8013B00F8013B521EF9D27047D1
:1001E000D2B201E000F8012B491EFBD27047002279
:1001F000F6E710B513460A4604461946FFF7F0FF26
:10020000204610BD30B505462A460B4612F8010BB4
:1002100013F8014B08B1A042F8D01CB1002802D05D
:100220006D1CF1E7284630BD10B5044604E00B789C
:1002300000F8013B03B1491C521EF8D2204610BD04
:10024000421C10F8011B0029FBD1801A704730B501
:100250000B46014600202022012409E021FA02F584
:100260009D4205D303FA02F5491B04FA02F528441E
:10027000151EA2F10102F1DC30BD0000064C074D55
:1002800006E0E06840F0010394E807009847103466
:10029000AC42F6D3FFF72EFFC8380008E838000854
:1002A00010B5094801F093FD074801F09FFD06488D
:1002B000001D01F08CFD0448001D01F097FDBDE814
:1002C0001040024802F00CBAA8000020683100205B
:1002D000C0B000240FF2EC0B0FF2EC0A4FF4807167
:1002E0006846FFF784FFDFF8E8906E46A046651E7B
:1002F00030190746294600F0C5F8002C60D017F8E1
:10030000010C0D2835D1305D0A2832D187F80180E3
:1003100059466846FFF776FF40B1224669462D48A8
:10032000FFF782FF0020C9F8000013E0514668463D
:10033000FFF768FF38B1224669462648FFF774FF89
:10034000C9F8005006E0684623A1FFF75BFF30B113
:10035000C9F800801E48083001F050FD0CE06846E6
:100360001EA1FFF74FFF20B13A276C460026A84692
:1003700004E0641CFF2CBBDD0024B9E70025204607
:10038000414600F07FF82078B84216D006EB86018F
:100390006FF02F0202EB41014618EFE7601941466A
:1003A00000F070F8FF2D07DC605D0E4902F0B3F934
:1003B00007480C3001F022FD6D1CB542DEDAEDE796
:1003C000012495E74F4B00004552524F5200000068
:1003D000A0000020682F00203E0000002B49504460
:1003E0002C0000006831002070B590B00C46064625
:1003F000154640216846FFF7FAFE1BA13046FFF77D
:1004000001FF88B13046FFF71BFF01464FEA0600A7
:1004100000F03AF82946174801F0EDFC08B31548FA
:10042000083805684DB119E0334613A240216846EB
:1004300001F09EF901466846EAE77CB12046FFF7E5
:10044000FFFE01464FF48070814202D82046FFF73C
:10045000F7FE02460A492046FFF7B0FE284610B0D4
:1004600070BD6FF00100FAE741542B4349505345EA
:100470004E443D00A800002025730D0A0000000036
:10048000682F002001F04EB901F02CB9FEE770474B
:1004900072B6FEE710B590F821100022022905D0AF
:1004A0000421816380F82020012010BD01680B68C1
:1004B00023F00E030B6001680B6823F001030B604F
:1004C00090F84030C46B012101FA03F3636080F8B7
:1004D000211080F82020104610BD000010B590F8C3
:1004E00021100024022903D00421816301243DE06E
:1004F00001680A6822F00E020A6001680A6822F0A8
:1005000001020A601A4A0168914201D1012121E0E9
:10051000174A1432914201D110211BE0144A2832AB
:10052000914201D1891515E0114A3C32914201D125
:1005300089140FE00E4A5032914202D14FF48031BB
:1005400008E00B4A6432914202D14FF4801101E07D
:100550004FF08071064A083A5160012180F821105D
:10056000002180F82010416B01B18847204610BD62
:10057000080002402DE9F84FDFF8B8910024A9F1F6
:10058000040B23460F2709F1040AABF1040EC9E05E
:100590000125A5402A40AA427DD1674ED1F804C06A
:1005A000ACEB0608B44532D014DCBCF1030F3AD0F2
:1005B00009DCBCF1000F2AD0BCF1010F1CD0BCF14A
:1005C000020F31D11DE0BCF1110F17D0BCF1120F99
:1005D0002AD119E0B8F5881F19D006DCB8F5803F9C
:1005E00015D0B8F5801F1FD111E0B8F5001F0ED04F
:1005F000B8F5041F18D10AE0CB6815E0CB681B1DC5
:1006000012E0CB6808330FE0CB680C330CE08B684A
:100610002BB1012B4FF0080303D0456104E0042304
:1006200002E0056100E00023FF2A01D8064601E050
:1006300000F104064FEA840501D9A5F12005D6F89A
:10064000008007FA05FC28EA0C0803FA05F548EAD9
:100650000508C6F800804D68ED0062D5374DAE69DB
:1006600046F00106AE61AD6924F0030605F0010510
:100670000095334D06EB050CDCF80850A607360F45
:1006800007FA06F825EA0805DFF8B880404503D1E7
:100690004FF0000817E044E0DFF8AC80404502D19D
:1006A0004FF001080FE0DFF8A480404502D14FF081
:1006B000020808E0DFF89880404502D14FF00308B7
:1006C00001E04FF0040808FA06F848EA0508CCF8FB
:1006D00008804D68D9F80060ED024D4601D51643FB
:1006E00000E096432E604D68DAF80060AD02554692
:1006F00001D5164300E096432E604D68DBF800609C
:10070000AD035D4601D5164300E096432E604D686B
:10071000DEF80060ED03754601D5164300E0964310
:100720002E60641C0D682A46E5407FF431AFBDE8B9
:10073000F88F000008040140000011100010024072
:100740000000014000080140000C01400010014081
:100750000014014001488068704700000400002038
:1007600002488168027811448160704704000020CB
:10077000074810B5016841F010010160032000F046
:100780007BF80F2000F006F800F024F8002010BDE0
:100790000020024070B50D4D04464FF47A71287860
:1007A000B1FBF0F00A490968B1FBF0F000F0E2FAA1
:1007B00048B9102C07D200222146501E00F03CF808
:1007C00000206C6070BD012070BD0000040000209E
:1007D000100000200F4808B5816941F001018161D6
:1007E000816901F001010091C16941F08051C1614D
:1007F000C069002200F0805000900F21901E00F090
:100800001BF80548416821F0E06141F0007141604A
:1008100008BD00000010024000000140002809DB74
:1008200000F01F02012191404009800000F1E0200A
:10083000C0F8001170470000F0B40E4B1B680C4666
:10084000C3F30223C3F10705042D00D90425191DA4
:10085000072901D2002300E0DB1E012606FA05F17C
:10086000491E214099409E40761E16403143F0BCFF
:1008700000F096BF0CED00E0064900F007020868A2
:100880004FF6FF03184040EA0220034A1043086075
:10089000704700000CED00E00000FA052DE9F0477C
:1008A0000F46050061D0434E306800F00700B842A3
:1008B00009D2306820F0070038433060306800F01B
:1008C0000700B84251D128683B4C810712D5400738
:1008D00003D5606840F4E06060602878000703D5C5
:1008E000606840F4605060606068A96820F0F000C3
:1008F000084360602878C00728D06868012810D0B5
:100900002168022810D0890700292EDA616821F0B9
:10091000030101436160FFF71DFF804641F2883902
:100920000DE021688903EFE78901EDE7FFF712FF8A
:10093000A0EB0801494502D90320BDE8F0876068B3
:10094000696800F00C00B0EB810FEFD1306800F067
:100950000700B8420BD9306820F0070038433060F8
:10096000306800F00700B84201D00120E5E72878A0
:10097000400705D56068E96820F4E06008436060DE
:100980002878000706D56068296920F4605040EA9D
:10099000C100606000F038F86168084AC1F30311D3
:1009A000515CC8400649086006480068FFF7F2FE3F
:1009B0000020C2E70020024000100240A2380008D8
:1009C000100000200800002004480549006849681C
:1009D000044AC1F30221515CC84070471000002056
:1009E00000100240B2380008044805490068496810
:1009F000044AC1F3C221515CC84070471000002076
:100A000000100240B23800080E4A51680E4801F04A
:100A10000C03042B11D0082B0FD10C48C1F38343D6
:100A2000C903C05C0AD55168084AC1F34041921E0F
:100A3000515C054A5043B0FBF1F07047044948430C
:100A4000704700000010024000127A00923800083F
:100A500000093D002DE9F84F040070D02078C04D0A
:100A6000C00749D06868C0F38100012807D06868D2
:100A7000C0F38100022809D16868C00306D5286840
:100A8000800339D560680028E7D035E06068B0F5AC
:100A9000803F0BD010B1B0F5A02F11D0286820F402
:100AA00080302860286820F4802002E0286840F424
:100AB00080302860606890B1FFF74CFE06460AE07F
:100AC000286840F480202860F0E700BFFFF742FE6E
:100AD000801B642873D828688003F7D50CE0FFF7E3
:100AE00039FE064605E000BFFFF734FE801B642890
:100AF000F0D828688003F7D420789A4E80074FF00A
:100B000001094FF0000839D5686810F00C0F07D0C4
:100B10006868C0F38100022809D16868C00306D460
:100B20002868800714D52069012808D110E02069C1
:100B3000B0B1C6F80090FFF70DFE074605E00AE1E8
:100B4000FFF708FEC01B0228C4D828688007F7D525
:100B50002868616920F0F80040EAC10028600DE0D3
:100B6000C6F80080FFF7F6FD074604E0FFF7F2FD48
:100B7000C01B022823D828688007F7D420780007F4
:100B80002CD57948A169D9B1C0F80090FFF7E2FDF2
:100B9000074604E0FFF7DEFDC01B02280FD8686A95
:100BA0008007F7D571484FF4FA510068B0FBF1F0B7
:100BB000009000BF0098411E0091FAD20EE080E044
:100BC000C0F80080FFF7C6FD074604E0FFF7C2FD4E
:100BD000C01B022875D8686A8007F7D420784007C0
:100BE00060D5E8690027C00008D4E86940F080506B
:100BF000E861E869012700F0805000905C480168D6
:100C0000C90513D40168834641F480710160FFF780
:100C1000A1FD824606E000BFFFF79CFDA0EB0A00A5
:100C200064284ED8DBF80000C005F5D5E06801283F
:100C30000AD008B1052813D0286A20F001002862E4
:100C4000286A20F0040002E0286A40F001002862CF
:100C5000E06841F2883B98B1FFF77CFD82460BE0EB
:100C6000286A40F004002862EEE700BFFFF772FD3B
:100C7000A0EB0A0159455AD8286A8007F6D50CE03E
:100C8000FFF768FD824605E0FFF764FDA0EB0A016F
:100C900059454CD8286A8007F6D41FB1E86920F07E
:100CA0008050E861E06988B36968C1F38101022975
:100CB00044D00228C6F8608004D0FFF74BFD0446FC
:100CC00038E034E0FFF746FD074604E0FFF742FD59
:100CD000C01B02282BD828688001F7D4206AB0F501
:100CE000803F05D16868A16820F40030084368603F
:100CF000D4E908010843696821F474110843686065
:100D0000C6F86090FFF726FD044606E025E000BF28
:100D1000FFF720FD001B022809D828688001F7D5BD
:100D20001BE000BFFFF716FD001B022802D90320BD
:100D3000BDE8F88F28688001F4D40EE00128F7D0D0
:100D40006868226A00F48031914204D1616A00F43B
:100D50007010884201D00120EAE70020E8E7000097
:100D60000010024000004242800442421000002075
:100D70000070004010B5401EB0F1807F01D301200B
:100D800010BD4FF0E02460610F21601700F008FDF6
:100D90000020A06107202061002010BD704770472F
:100DA000F8B5016804460868CA684B6910F00F0F6F
:100DB0004FF0000559D003F0010602F49077374355
:100DC00065D0C10705D0D10503D5616C41F00101A3
:100DD0006164410705D5D90703D0616C41F0020178
:100DE0006164810705D5D90703D0616C41F0040126
:100DF0006164010707D502F02001314303D0616C23
:100E000041F008016164616C00293AD0800604D584
:100E1000900602D5204600F032FB20684069616CE4
:100E2000C0F38010090700D460B3204600F000FB37
:100E300020684069400621D52068143050E8001F22
:100E400021F0400140E80012002AF5D1E06BA8B182
:100E50006D494163E06BFFF741FB002811D0E06B67
:100E6000416B01B0BDE8F040084783060FD59306FB
:100E70000DD52046BDE8F84000F001BB2046FFF745
:100E80008EFFF8BD2046FFF78AFF6564F8BD266B2C
:100E90002023012E7CD1C6067AD5D60678D50868DF
:100EA0004868009048694FF00206400640D5E16B63
:100EB000086840680004000CE8D0A28D8242E5D9A1
:100EC000E085886920282DD020680C3050E8001F6C
:100ED00021F4807140E80012002AF5D12068143016
:100EE00050E8001F21F0010140E80012002AF5D16E
:100EF0002068143050E8001F21F0400140E8001243
:100F0000002AF5D184F84230256320680C3050E87F
:100F1000001F21F0100140E80012002AF5D1E06B1B
:100F2000FFF7B8FA6663A08DE18D401A81B22AE01E
:100F3000A08DE18D401A81B2E08D0028A6D0002955
:100F4000A4D022680C3252E8000F20F4907042E8DE
:100F50000007002FF5D12068143050E8002F22F050
:100F6000010240E80027002FF5D184F842302563C4
:100F700020680C3050E8002F22F0100240E80023D7
:100F8000002BF5D166632046FFF708FFF8BDFFE7A9
:100F900005062BD5150629D594F841002128F5D151
:100FA000A068B0F5805F01D12069B0B1206A411C12
:100FB0002162216800784860E08C401E0004000C2B
:100FC000E084E3D12068C16821F08001C16020681D
:100FD000C16841F04001C160D8E7206A0088C0F3D1
:100FE00008004860206A801C2062E5E74006CDD5F5
:100FF0005006CBD5CA68204622F04002CA6084F869
:10100000413000F0F4F8C1E72114000870B5040085
:1010100004D094F84100002510B106E0012070BD15
:1010200084F84050204600F023F8242084F8410042
:101030002068C16821F40051C160204600F080FAA8
:101040002068016921F4904101612068416921F023
:101050002A0141612068C16841F40051C1606564A2
:10106000202084F8410084F842006563002070BDB0
:1010700070B586B000240094019402940394036830
:101080002E482D4E022103220515B34226D1836935
:1010900043F480438361836903F480430493836949
:1010A00043F0040383618069254E00F0040004903E
:1010B0000802CDE90001039269463046FFF75AFA6B
:1010C000CDE90054694630460294FFF753FA0022F6
:1010D00005212520FFF7B0FB252028E0194EB3425B
:1010E00027D1C36943F48023C361C36903F4802318
:1010F0000493836943F0080383618069CDE900515B
:1011000000F00800CDE903200F4D69462846FFF79F
:1011100031FAE814CDE90004694628460294FFF745
:1011200029FA002205212720FFF786FB2720FFF759
:1011300075FB06B070BD0000003801400010024091
:101140000008014000480040000C014070472DE9B4
:10115000F843044690F84100984616460D4620286C
:1011600002D00220BDE8F88385B17EB10020606422
:10117000212084F84100FFF7EDFAA6848146E68439
:10118000A0682027B0F5805F02D003E00120E9E7E6
:10119000206910B12E4600250EE000260CE08021CB
:1011A000204600F029FAA8B9C6B116F8010B21684B
:1011B0004860E08C401EE084E08C4B464FF000021B
:1011C000CDF800800028EAD14FF04001204600F021
:1011D00013FA40B184F841700320C3E735F8020BDD
:1011E000C0F30800E3E784F841700020BAE77047D5
:1011F000FEE7000010B5094A0021094800F0A2FDF1
:101200000849064A08600021074800F09BFDBDE838
:101210001040024A0021054800F094BD6C380008D7
:10122000F112000800000020D1020008711300082C
:10123000114808B5816941F010018161816901F0AF
:1012400010010091816941F020018161816901F003
:1012500020010091816941F008018161816901F0FB
:1012600008010091816941F004018161806900F009
:101270000400009008BD0000001002400C4810B5AA
:101280000A4901604FF4E1314160002181600C2284
:10129000C160C0E904128161C161FFF7B7FE002897
:1012A00003D0BDE81040FFF7F3B810BD003801408F
:1012B000BC0100200C4810B50A4901604FF4E1312F
:1012C0004160002181600C22C160C0E9041281618B
:1012D000C161FFF79BFE002803D0BDE81040FFF777
:1012E000D7B810BD0048004004020020FEE7FEE72A
:1012F000012000F0EBFCFBE710B5FFF731FA02F03C
:10130000C3F8012803D0BDE8104001F0C7BC10BDF0
:1013100030B58FB028216846FEF769FF14210AA86E
:10132000FEF765FF01210804CDE9001000240294B6
:1013300002250491CDE907504FF4E010099068466A
:10134000FFF788FB08B172B6FEE70F20CDE90A056A
:101350004FF48060CDE90C4002210AA80E94FFF7FB
:101360009DFA002801D072B6FEE70FB030BD70477D
:10137000C0B00FA54FF47A74224669462846FFF79D
:1013800033F801460BA000F0E3F910A000F0E0F9FB
:10139000684600F0DDF914A000F0DAF913A000F0BF
:1013A000D7F91EA000F0D4F9204601F0F5FAE3E7E2
:1013B00041540000636F6D6D656E642073746174D9
:1013C00065203D2025640D0A00000000636F6D6DEF
:1013D000656E642072657475726E207374617465D5
:1013E000733A0D0A000000000A0000002D2D2D2D7B
:1013F0002D2D2D2D2D2D2D2D2D2D2D2D2D2D2D2D1D
:101400002D2D2D2D2D2D2D2D2D2D2D2D2D2D2D2D0C
:101410002D2D2D2D2D2D2D2D000000000D0A00004D
:1014200010B5406A0021C185C184FFF7B8FC10BD2A
:1014300001680C3151E8002F22F4907241E800233A
:10144000002BF5D10168143151E8002F22F0010280
:1014500041E80023002BF5D1016B012909D1016876
:101460000C3151E8002F22F0100241E80023002B3C
:10147000F5D1202180F8421000210163704708B5A2
:1014800090F84210222901D0022008BD82684FF452
:1014900080539A4201D1016921B1816A9A421BD0DD
:1014A0004AB10AE00268816A5268C2F308020A80FF
:1014B000816A891C08E0026972B10268526802F010
:1014C0007F020A70816A491C8162C18D491E09042C
:1014D000090CC18503D01BE002685268F1E701687E
:1014E000CA6822F02002CA600168CA6822F48072C9
:1014F000CA6001684A6922F001024A61202180F82D
:10150000421000214163026B012A03D0FFF71EFE47
:10151000002008BD016301680C3151E8002F22F062
:10152000100241E80023002BF5D101680A68D206B9
:1015300002D50A6849680091818DFFF72FFCE7E723
:1015400070B5044600680169E26821F44051114316
:1015500001612169A0680843616908432168CA687C
:1015600041F20C639A430243CA6020684169A26950
:1015700021F44071114341611E492068884202D123
:10158000FFF732FA01E0FFF71FFA00EBC00101EBB1
:101590000012606864218000B2FBF0F3B3FBF1F34A
:1015A0006FF018067343B2FBF0F5B2FBF0F605EBF3
:1015B0008305322303EB0515B5FBF1F5B6FBF1F618
:1015C00005F0F00505EB0615B2FBF0F6B2FBF0F006
:1015D000B0FBF1F06FF01802504306EB800003EB14
:1015E0000010B0FBF1F0216800F00F002844886083
:1015F00070BD0000003801402DE9F84398461746B9
:101600000D460446089E24E0701C22D0FFF7A2F885
:10161000A0EB0800B0421AD8CEB12068C1684907D3
:1016200017D5802D15D0402D13D00168C943090767
:101630000FD401680025406800902046FFF7F8FEAF
:101640000820606484F840500120BDE8F88303203E
:10165000FBE72068006835EA000004D00020B842AB
:10166000D2D00020F1E70120F9E700000148FFF7A0
:1016700097BB0000BC01002010B500220F212720DD
:10168000FFF7DAF82720FFF7C9F8064801680A686B
:1016900022F020020A600068C16841F02001C160A8
:1016A00010BD0000040200200B4810B5006802685D
:1016B000C16892060ED589060CD540680749C0B2AC
:1016C0000870074901F027F80448BDE81040001DE4
:1016D00000F09ABB10BD000004020020980000201A
:1016E000602E002030B50022054C06E023681D68FE
:1016F0002D06FCD5855C5D60521C8A42F6DB30BD50
:101700000402002010B5054800F061FB034800F01A
:101710006DFBBDE81040024800F0E2BF9C000020D5
:10172000602E002070B50C4605460649284600F09C
:10173000DDFF002804D02146034800F05CFBF4E7FD
:1017400070BD0000602E00209C000020FEE700001D
:101750000FB4054B10B503A9044A029800F040F8F5
:1017600010BC5DF814FB0000391B0008B00000201D
:101770000FB41CB50246002007AC00290BD0491E4F
:10178000CDE90021054B6A462146069800F028F86D
:10179000009A002111701CBC5DF814FB231B00088B
:1017A0000907090E002804DB00F1E02080F800148E
:1017B000704700F00F0000F1E02080F8141D704722
:1017C00002E008C8121F08C1002AFAD1704770470A
:1017D000002001E001C1121F002AFBD17047000068
:1017E0002DE9FF4F8BB088460546002606E02528E8
:1017F0000BD0DDE90D1290476D1C761C287800286F
:10180000F5D10FB03046BDE8F08F0024A146A246C6
:101810000122AE4900E0044315F8013F203B02FAE3
:1018200003F00842F7D128782A2810D06FF02F0251
:101830002878A0F13001092915D809EB890102EBBC
:10184000410144F0020400EB01096D1CF0E758F877
:10185000041B5FEA010903D544F40054C9F10009EF
:1018600044F002046D1C28782E2817D115F8010FBA
:1018700044F004042A280ED06FF02F022878A0F13B
:10188000300109290AD80AEB8A0102EB410100EB79
:10189000010A6D1CF2E758F804AB6D1C28786C281F
:1018A0000FD006DC4C2817D068280DD06A2814D138
:1018B00004E0742810D07A280FD10DE044F400140D
:1018C0000AE044F4801401E044F440146978814251
:1018D00002D104F580146D1C6D1C2878692865D030
:1018E00006DC00288DD0632827D0642806D15DE06F
:1018F0006E2808D073282AD0752877D0DDE90D121C
:101900009047761CE0E0C4F30250022809D0032877
:101910000DD0D8F8001004280DD00E6008F104088E
:10192000D2E0D8F80010F217C1E90062F6E7D8F863
:1019300000100E80F2E70E70F0E718F8041B8DF827
:10194000001000208DF80100EB46012003E058F85C
:1019500004BB4FF0FF3061074FF0000701D40AE0ED
:101960007F1C57450DDA8742FADB1BF80710002968
:10197000F6D106E07F1C8742FCDB1BF8071000292C
:10198000F8D1DDE90D23A9EB07008146214600F0DF
:10199000B1F83044C61904E0DDE90D121BF8010B63
:1019A00090477F1EF8D22146484688E058F8040B3D
:1019B000C4F302514FF00A0B032900D100B20429ED
:1019C00000D140B2002802DA40422D2102E0210578
:1019D00005D52B218DF82410012104E006E0E10754
:1019E00010D02021F6E708AF089113E058F8040B57
:1019F000C4F302514FF00A0B032900D180B204292D
:101A000000D1C0B20021EEE75946FEF720FC30318C
:101A100007F8011D0028F7D1ADEB070000F1200BFE
:101A2000600702D524F4803401E04FF0010ADA4562
:101A300002DDAAEB0B0000E00020824600EB0B0168
:101A400008980144A9EB01000A90E00306D4DDE9FF
:101A50000D2321460A9800F04DF806444FF0000986
:101A600008E009A911F80900DDE90D12904709F114
:101A70000109761C08998945F3DBE0030CD5DDE903
:101A80000D2321460A9800F035F8064404E0DDE90C
:101A90000D1230209047761CBAF10001AAF1010A1C
:101AA000F5DC05E0DDE90D1217F8010B9047761C17
:101AB000BBF10001ABF1010BF4DC0A982146DDE932
:101AC0000D2300F005F806446D1C97E60928010077
:101AD0002DE9F041044600251E461746880404D42B
:101AE00005E039462020B0476D1C641EF9D5284614
:101AF000BDE8F0812DE9F041044600251E469046E0
:101B0000C80301D5302700E02027880404D505E06C
:101B100041463846B0476D1C641EF9D52846BDE8DD
:101B2000F0814A68002A06D00A68531C0B601070C6
:101B30004868401E4860704713B54FF6FF73012296
:101B400069460248FFF703FB00981CBDBC0100205A
:101B5000FEF70EFEFFF7DCFBFFF76AFBFFF78EFBDD
:101B6000FFF7A8FB104800F0BBFDFFF7CBFDFEF729
:101B700097FBFFF781FD0DA0FFF7EAFD17A0FFF728
:101B8000E7FD22A0FFF7E4FD2CA0FFF7E1FD37A061
:101B9000FFF7DEFD41A0FFF7DBFD00F0A5F8FFF742
:101BA00029FB00F0B3F8FEE7B4000020205F5F5F80
:101BB0005F5F5F5F5F5F5F5F5F5F5F5F5F5F5F5F35
:101BC0005F5F5F5F5F5F5F5F5F5F5F5F5F5F5F5F25
:101BD0005F5F5F5F5F5F5F0D0A0000007C20202079
:101BE00020202020202020202020202020202020F5
:101BF00020202020202020202020202020202020E5
:101C0000202020202020207C0D0A00007C20202085
:101C10002020202020202020202020204D515454FE
:101C20002050726F6772616D2020202020202020BC
:101C3000202020202020207C0D0A00007C20202055
:101C40002020202020202020202020417574686F33
:101C5000723A4D696E657276612020202020202026
:101C6000202020202020207C0D0A00007C20202025
:101C70002020202020202046696E69736820546946
:101C80006D653A323032352F30392F3330202020F5
:101C9000202020202020207C0D0A00007C5F5F5F38
:101CA0005F5F5F5F5F5F5F5F5F5F5F5F5F5F5F5F44
:101CB0005F5F5F5F5F5F5F5F5F5F5F5F5F5F5F5F34
:101CC0005F5F5F5F5F5F5F7C0D0A000010B5EFF341
:101CD000058111B16FF0050403E0002408B100F0A4
:101CE0005BFE204610BD0000EFF3058010B16FF0E1
:101CF000050070470448016811B14FF0FF3070478C
:101D000001210160002070476400002010B5EFF34E
:101D1000058010B16FF0050010BD08480168012969
:101D200002D04FF0FF3010BD054A002182F8141D8B
:101D30000221016000F0E0FE002010BD64000020E0
:101D40000BE000E02DE9FF414FEA01034FF00005F1
:101D5000EFF30581039549BB40B380271821002488
:101D60004AB3166806B1344696691EB13146761EEE
:101D7000382E02D21679F60703D0002004B0BDE851
:101D8000F081566906B1B708D2F808C0BCF1000F5F
:101D90000DD0D5685C2D18D312693AB136B18DE8F3
:101DA00006103A46214601F044FB03900DE0D66848
:101DB0005EB912694AB903AACDE90012BAB2214646
:101DC00001F00AFB012800D003950398D6E710B56F
:101DD000044603220021012000F076FF00231A466A
:101DE0001946206001F008F8002010BD00684FF08F
:101DF000FF3101F0FBB9006801F0F8B90023006879
:101E00001A46194600F0F8BF10B50068074901F0FE
:101E100002F90648006838B105494FF08050086063
:101E2000BFF34F8FBFF36F8F012010BD94000020D0
:101E300004ED00E02DE9F041134C0F460546E6683D
:101E40002068001D00F075FC681C07D137B12168BF
:101E5000BDE8F0410D48091D00F0BABC20683544CA
:101E6000B5424560216805D2A06BBDE8F041091D6F
:101E700000F096BC606B091D00F092FCA06A8542E0
:101E800000D2A562BDE8F081140000203C070020CC
:101E90002DE9F041054600F0A7FC2D4CA068401C40
:101EA000A06020682B4F10B1606930B32BE0256033
:101EB000A068012827D1002606EB860007EB8000EA
:101EC00000F060FC761C382EF6D3234800F05AFC54
:101ED0002148143000F056FC1F48283000F052FC16
:101EE0001D483C3000F04EFC1B48503000F04AFCCE
:101EF000194860631430A06305E02068E96AC06A8D
:101F0000884200D82560606A401C60626864E86AA4
:101F10002169884200D9206100EB800007EB800036
:101F2000291D00F055FC00F07FFC606900280CD0F2
:101F30002068E96AC06A884207D208494FF0805099
:101F40000860BFF34F8FBFF36F8FBDE8F0810000D3
:101F5000140000208C020020EC06002004ED00E0BC
:101F600038B500F041FC104C2068C8B90F4800F0AB
:101F700009FC0E48143000F005FC0C48E0601430F9
:101F800020610A4B0020F03B009003F15002102129
:101F90000A2000F0BAFE206010B105A100F0C6FCD6
:101FA000BDE8384000F040BC500000204008002050
:101FB000546D72510000000030B4026C0B46002AD0
:101FC0000BD0C1681144C1608468A14201D301688B
:101FD000C16030BC1846FEF7F1B830BC70472DE93F
:101FE000F041856B174604460026026C82B1C7B1EA
:101FF000E068FEF7E3F8E168206C091AE160226806
:10200000914202D2A168081AE060022F16D017E0B0
:102010002068A8B9A06801F0AFFA06460020A060C9
:102020000EE06068FEF7CAF8216C606808446060E2
:10203000A168884204D32068606001E005B16D1E8C
:102040006D1CA5633046BDE8F08110B5044690F8DC
:10205000590058B101280CD002280FD0502080F32D
:102060001188BFF34F8FBFF36F8FFEE7206B00F037
:10207000EFFB2046BDE8104000F0EABB10BD0000B9
:1020800010484FF4FA51420706D0C01D0D4920F008
:102090000700411AC1F5FA510B4A00230144C2E975
:1020A00000030839183A21F0070111604B600B60FA
:1020B0000B1AC0E9001393604FF000405360506169
:1020C00070470000200F002080000020144E154CA7
:1020D000A6F29C474FF08058DFF84C9012E000BF0A
:1020E00000F082FBF068C568281D00F022FBA068A4
:1020F000401EA0606068401E606000F095FB2846AE
:10210000FFF7A3FF60680028EAD138680128F9D9F1
:10211000C9F80080BFF34F8FBFF36F8FF2E7000065
:10212000280700201400002004ED00E070B51D46D3
:10213000049C51B1C4F80020C4E90F0101212046DC
:1021400000F016FE84F84C5070BD2460F4E70000E7
:102150002DE9F05F8846DDE90B9415468346910032
:102160009A460A9EA522206BFEF73AF86FF003010B
:10217000206B01EB8501084420F00707780707D0A2
:10218000502080F31188BFF34F8FBFF36F8FFEE7AE
:102190000025B8F1000F0FD05FF00000221818F8EA
:1021A000001082F8341018F8001011B1401C1028EB
:1021B000F4D384F8435001E084F83450382E00D32F
:1021C0003726E662C4E91365201D00F0E6FA04F143
:1021D000180000F0E2FA2461C6F138006462A061E0
:1021E000656584F8585052465946384600F066FAFC
:1021F0002060B9F1000F01D0C9F80040BDE8F09FA0
:1022000030B5114900E011460A688242FBD34B68A1
:102210005C18844203D1406818444860084643680B
:102220001C18944209D1084C183C2468A24209D0D9
:1022300052681A4442600A6812680260814200D003
:10224000086030BD0460F9E78000002070B500240C
:1022500041600B4D0061914206D8D11A82699142CA
:1022600006D2011D286907E09A4203D2994201D3A0
:10227000012403E0011DE86800F092FA204670BDD9
:102280005000002010B5044600F0AEFAA06B28B153
:102290005FF0000400F0C8FA204610BD0124F9E701
:1022A00030B589B03C4D6EE00498002806DADDE9CF
:1022B0000601059A90470498002864DB069C606933
:1022C00010B1201D00F035FA03A800F0D7F802463F
:1022D00004980A2857D2DFE800F00505052D334A97
:1022E00005052D3394F8280040F0010084F82800FB
:1022F0000599A069059B01442046FFF7A7FF68B335
:10230000216A2046884794F8280040073BD50020E2
:1023100000900598A169002342181946204601F053
:1023200071FAD8B9502080F31188BFF34F8FBFF3F3
:102330006F8FFEE714F8280F20F00100207022E0D4
:1023400094F8280040F0010084F828000598A06166
:1023500028B1811813462046FFF778FF13E050207C
:1023600080F31188BFF34F8FBFF36F8FFEE794F8B0
:102370002800810703D4204600F06AFA03E020F029
:10238000010084F82800002204A9286800F092FEC9
:10239000002889D109B030BD500000202DE9FC4152
:1023A0000F46054600F0ECFB01A800F067F8044674
:1023B000019818B101F094F9BDE8FC81254EAFB148
:1023C00030690068D0B30027291B3A46306800F016
:1023D000C1FA01F085F90028EED11F494FF0805075
:1023E0000860BFF34F8FBFF36F8FE5E7A542EBD8CF
:1023F00001F076F9F0682746C068C468201D00F037
:1024000098F994F82800410719D5A0692B4641197D
:102410003A462046FFF71AFFA8B1002003460146BE
:1024200000902A46204601F0EDF960B9502080F373
:102430001188BFF34F8FBFF36F8FFEE707E020F0E7
:10244000010084F82800216A20468847B4E7012764
:10245000BAE700005000002004ED00E00648416BA0
:10246000096829B1416BC968C968496881627047C8
:102470004FF0FF31FAE700001400002070B5054668
:1024800001F010F8064E0446B068844203D200F012
:1024900009F8012000E0002028602046B46070BDEB
:1024A00050000020F8B5194D20E0C068C4680668E7
:1024B000201D00F03EF9216A2046884794F8280044
:1024C000400713D5A0693044B04206D9246160604A
:1024D000211DE86800F064F908E000200346014689
:1024E00000903246204601F08DF938B1E868016865
:1024F0000029DAD12969C5E90310F8BD502080F31D
:102500001188BFF34F8FBFF36F8FFEE7500000209D
:1025100008484068401C4FF0500080F3118804D0F8
:10252000BFF34F8FBFF36F8FFEE7BFF34F8FBFF344
:102530006F8FFEE788000020074CE068016841B11A
:10254000C0680021D0F80000FFF728FFFFF7A8FEC1
:10255000F3E701210020F7E7500000202DE9F041CA
:10256000044600F041F994F9455004F1240609E0CD
:10257000606A48B1304601F07BF808B100F03AFAE1
:102580006D1E6DB2002DF3DC4FF0FF3684F8456010
:1025900000F04AF900F028F994F9445004F11007CA
:1025A00009E0206948B1384601F062F808B100F04E
:1025B00021FA6D1E6DB2002DF3DC84F84460BDE895
:1025C000F04100F031B900002DE9F0410546002747
:1025D00000F0D6FA324E306808B9FFF751FD706945
:1025E00005424ED1C5B3083568070ED005F0070087
:1025F000C0F108000544680707D0502080F3118817
:10260000BFF34F8FBFF36F8FFEE72DB37068854226
:1026100037D82348183001460C6801E020460C46A4
:102620006168A94202D221680029F7D131688C4241
:1026300027D007682168016060680837411B1029AE
:102640000FD96019420708D0502080F31188BFF3DA
:102650004F8FBFF36F8FFEE713E041606560FFF7B8
:10266000CFFD61687068401A7060B268904200D215
:10267000B060706901430020C4E90001F068401CAB
:10268000F06001F02DF8780707D0502080F3118812
:10269000BFF34F8FBFF36F8FFEE73846BDE8F08181
:1026A000680000200449086818B10868026D521CCF
:1026B00002650868704700001400002010B5031F71
:1026C0004FF080741C601B1F21F001011960191F5D
:1026D000024B0B60143940380A6010BD1125000808
:1026E0000021C0F80011C0F804117047D1F804218E
:1026F000D1F800319A4202D14FF0FF307047D1F843
:1027000004218A5C0270D1F80401401CC0B2C1F8F7
:10271000040100207047D1F80021D1F80431521C87
:10272000D2B2934204D0D1F80031C854C1F800218C
:102730007047D0E9013201699A60D0E901235A60FB
:102740004A68824201D182684A60002202610868B8
:10275000401E086008687047034B036003F15C008B
:10276000086080201060704768080020044B0360F8
:1027700003F15C0008604FF4807010607047000047
:10278000C40A002000F108014FF0FF32C0E9011235
:10279000C160016100210160704700210161704743
:1027A00030B50B685A1C02D000F1080202E0026941
:1027B00004E02246546825689D42FAD953684B606C
:1027C00099608A60516008610168491C016030BDF0
:1027D00042684A6093688B609368596091600861B1
:1027E0000168491C01607047502080F31188BFF3D5
:1027F0004F8FBFF36F8F0A494868401C486001281B
:102800000CD10848006810F0FF0F07D0502080F36B
:102810001188BFF34F8FBFF36F8FFEE77047000043
:102820008800002004ED00E00849486828B1401EF7
:10283000486001D180F311887047502080F31188DF
:10284000BFF34F8FBFF36F8FFEE7000088000020BB
:1028500070B500282AD0164DA0F108046068696997
:10286000084207D1502080F31188BFF34F8FBFF388
:102870006F8FFEE722683AB1502080F31188BFF3D2
:102880004F8FBFF36F8FFEE78843606000F078F9E9
:1028900060686968084468602046FFF7B1FC2869F1
:1028A000401C2861BDE8704000F01ABF70BD0000F8
:1028B000680000204FF0E02000210161816105499E
:1028C0004FF47A720968B1FBF2F1491E41610721A8
:1028D000016170471000002010B5FDF759FC114947
:1028E00010280ED300F1E02090F8F0030A7890420F
:1028F00007D2502080F31188BFF34F8FBFF36F8F43
:10290000FEE709480068896800F4E060884207D95A
:10291000502080F31188BFF34F8FBFF36F8FFEE716
:1029200010BD0000880000200CED00E010B5084B41
:10293000002200BF53F832401CB1521C082AF9D3C0
:1029400010BD43F8321003EBC201486010BD000017
:102950004C02002070B515460E460446FFF744FFB2
:1029600094F944100020491C01D184F8440094F9E2
:102970004510491C01D184F84500FFF755FFA06BB5
:1029800028B92A46314604F1240000F051F82046C7
:10299000BDE87040FFF7E2BD10B5020014D00F484B
:1029A000006B38B1502080F31188BFF34F8FBFF315
:1029B0006F8FFEE700F0E4F800211046FFF73AFAC7
:1029C00000F08EFE002807D105494FF080500860C6
:1029D000BFF34F8FBFF36F8F10BD000014000020B6
:1029E00004ED00E002490A6A0260C968416070476C
:1029F0001400002001490120C86170471400002024
:102A000010B50C4650B1094909681831FFF7C8FEE6
:102A10002046BDE810400121FFF70CBA502080F39A
:102A20001188BFF34F8FBFF36F8FFEE714000020B4
:102A300070B514460D4668B10A4909681831FFF7A8
:102A4000C7FE0CB14FF0FF3521462846BDE8704067
:102A5000FFF7F0B9502080F31188BFF34F8FBFF319
:102A60006F8FFEE71400002070B504003ED0226D89
:102A7000A2B1E06C884200D30146E06A884235D0BA
:102A8000012A33D11A4D2A6894420FD1502080F385
:102A90001188BFF34F8FBFF36F8FFEE7502080F395
:102AA0001188BFF34F8FBFF36F8FFEE7E162A2691A
:102AB000002A02DBC1F13801A1610E4E00EB80005B
:102AC000616906EB8000814210D1201DFFF731FEC5
:102AD000E06A2969884200D9286100EB800006EB92
:102AE0008000211DBDE87040FFF772BE70BD000080
:102AF000140000208C02002030B587B0002403941D
:102B000005AA04A903A80494FFF726FEDDE9030142
:102B10000094CDE90110002315A11748059A00F093
:102B200088FC164D0028E8621FD000F03BFE01280B
:102B300009D0401C19D1502080F31188BFF34F8F6A
:102B4000BFF36F8FFEE7502080F31188BFF34F8FE4
:102B5000BFF36F8F4FF0FF30A86201206861EC6017
:102B600007B0BDE8304000F045B807B030BD000008
:102B700049444C4500000000CD200008140000200E
:102B80000248016B491C01637047000014000020DB
:102B9000164810B5016B11B10121C16110BD0021B2
:102BA000C1610169124A01E0B9B1491E01EB81031B
:102BB00052F82330002BF7D001EB810302EB8302A4
:102BC00002F1080453685B685360A34201D15B685B
:102BD0005360DA680260016110BD502080F31188F3
:102BE000BFF34F8FBFF36F8FFEE70000140000208C
:102BF0008C0200201CB5264908780190FF2008703F
:102C000008788DF800009DF800009DF8002000F085
:102C1000F000904207D0502080F31188BFF34F8F0F
:102C2000BFF36F8FFEE79DF800001A4C00F05000D4
:102C300020700720A06005E09DF8002052008DF86C
:102C40000020401E9DF800201206F5D4A060032845
:102C500007D0502080F31188BFF34F8FBFF36F8FE1
:102C6000FEE74FF44070A060019808700A480168C0
:102C700041F470010160016841F070410160FFF7AB
:102C800019FE00206060FDF74DFA00201CBD000019
:102C900000E400E08800002020ED00E010B55020A6
:102CA00080F31188BFF34F8FBFF36F8F00F000FCEC
:102CB00018B104494FF080500860002080F311885B
:102CC00010BD000004ED00E0F8B517460E46050003
:102CD00013D005FB06F05030FFF776FC04000AD055
:102CE000002084F8460004F150023B463146284655
:102CF0000094FFF71BFA2046F8BD502080F311889E
:102D0000BFF34F8FBFF36F8FFEE738B5049D18B147
:102D100053B1CAB181B120E0502080F31188BFF3D4
:102D20004F8FBFF36F8FFEE7502080F31188BFF302
:102D30004F8FBFF36F8FFEE7502080F31188BFF3F2
:102D40004F8FBFF36F8FFEE739B1502080F31188AA
:102D5000BFF34F8FBFF36F8FFEE750241C46012354
:102D600084F846302B460094FFF7E0F9204638BD42
:102D700070B50D46040025D0FFF736FDD4E90F20CD
:102D8000216802FB0011A1600021A163216861603C
:102D90000A46D4E90F01401E00FB0121E1602146F3
:102DA0004FF0FF3001F8440F487004F110008DB16E
:102DB000FFF7E8FC04F12400FFF7E4FCFFF734FD23
:102DC000012070BD502080F31188BFF34F8FBFF3F7
:102DD0006F8FFEE721690029F0D000F049FC002840
:102DE000ECD004494FF080500860BFF34F8FBFF321
:102DF0006F8FE3E704ED00E02DE9FF4782B01D4649
:102E00008A464FF00008040003D0BAF1000F08D042
:102E100011E0502080F31188BFF34F8FBFF36F8F05
:102E2000FEE7206C38B1502080F31188BFF34F8F3C
:102E3000BFF36F8FFEE7022D0AD1E06B012807D0A8
:102E4000502080F31188BFF34F8FBFF36F8FFEE7E1
:102E500000F01AFB3F4F4FF000094FF0805648B981
:102E6000049838B1502080F31188BFF34F8FBFF31F
:102E70006F8FFEE7FFF7B8FCA06BE16B884207D3CA
:102E8000022D05D00498D0B1B8F1000F1AD01EE081
:102E90002A4651462046FFF7A2F8616A19B104F1AB
:102EA000240000F0E5FB20B13E60BFF34F8FBFF37D
:102EB0006F8FFFF7B9FC012006B0BDE8F087FFF780
:102EC000B3FC22E06846FFF78DFD4FF00108FFF7E5
:102ED000ABFCFFF755FEFFF787FC94F94400401C5C
:102EE00001D184F8449094F94500401C01D184F844
:102EF0004590FFF799FC04A9684600F033FA30B119
:102F00002046FFF72BFB00F0EBFB0020D4E7FFF798
:102F10006BFCA06BE16B884213D1FFF785FC04F1D9
:102F200010000499FFF76CFD2046FFF717FB00F037
:102F3000D7FB00289ED13E60BFF34F8FBFF36F8F4A
:102F400098E7FFF771FC2046FFF708FB00F0C8FB8D
:102F500090E7000004ED00E02DE9F0471F469046A1
:102F60008946040003D0B9F1000F08D011E05020C9
:102F700080F31188BFF34F8FBFF36F8FFEE7206C94
:102F800038B1502080F31188BFF34F8FBFF36F8F9C
:102F9000FEE7022F0AD1E06B012807D0502080F312
:102FA0001188BFF34F8FBFF36F8FFEE7FFF794FCDD
:102FB0005020EFF3118680F31188BFF34F8FBFF3DA
:102FC0006F8FA06BE16B884206D3022F04D00020E4
:102FD00086F31188BDE8F08794F94550A06B3A4616
:102FE00049462046FEF7FBFF681C04D06D1C84F8A0
:102FF00045500120ECE7606A0028FAD004F1240073
:1030000000F036FB0028F4D0B8F1000FF1D0012118
:10301000C8F80010EDE770B50E46040009D0206C2A
:1030200078B1502080F31188BFF34F8FBFF36F8FBB
:10303000FEE7502080F31188BFF34F8FBFF36F8FEF
:10304000FEE7206848B9A06838B1502080F31188A5
:10305000BFF34F8FBFF36F8FFEE7FFF73DFC5020AC
:10306000EFF3118580F31188BFF34F8FBFF36F8F9C
:10307000A16BE06B884218D994F94500491CA16303
:10308000411C04D0401C84F8450001200EE0606A19
:103090000028FAD004F1240000F0EAFA0028F4D065
:1030A000002EF2D001203060EFE7002085F3118878
:1030B00070BD00002DE9F747002683B08A46040062
:1030C00003D0BAF1000F08D011E0502080F311882E
:1030D000BFF34F8FBFF36F8FFEE7206C38B15020E6
:1030E00080F31188BFF34F8FBFF36F8FFEE700F0BF
:1030F000CBF9DFF8F4804FF000094FF0805748B962
:10310000059838B1502080F31188BFF34F8FBFF37B
:103110006F8FFEE7FFF768FBA56BC5B151462046F0
:10312000FEF74AFF6D1EA563206950B104F110003F
:1031300000F09EFA28B1C8F80070BFF34F8FBFF3BC
:103140006F8FFFF771FB012006B0BDE8F08705988F
:1031500008B11EB106E0FFF767FB27E06846FFF7FE
:1031600041FC0126FFF760FBFFF70AFDFFF73CFB80
:1031700094F94400401C01D184F8449094F945002E
:10318000401C01D184F84590FFF74EFB05A9684625
:1031900000F0E8F8002820460AD0FFF7DFF900F039
:1031A0009FFA2046FFF76EF80028B3D00020CBE747
:1031B000FFF768F890B104F124000599FFF720FCAF
:1031C0002046FFF7CBF900F08BFA0028A2D1C8F80F
:1031D0000070BFF34F8FBFF36F8F9BE72046FFF761
:1031E000BDF900F07DFA95E704ED00E02DE9F34329
:1031F000002683B00400354609D0206C78B15020F9
:1032000080F31188BFF34F8FBFF36F8FFEE750201D
:1032100080F31188BFF34F8FBFF36F8FFEE700F08D
:1032200033F9DFF83C814FF000094FF0805748B97F
:10323000049838B1502080F31188BFF34F8FBFF34B
:103240006F8FFEE7FFF7D0FAA06BC8B1401EA063F6
:10325000206810B9FFF726FAA060206950B104F188
:10326000100000F005FA28B1C8F80070BFF34F8FC6
:10327000BFF36F8FFFF7D8FA012005B0BDE8F083E8
:10328000049808B166B10FE03DB1502080F3118879
:10329000BFF34F8FBFF36F8FFEE7FFF7C5FA5DE017
:1032A0006846FFF79FFB0126FFF7BEFAFFF768FCB1
:1032B000FFF79AFA94F94400401C01D184F8449035
:1032C00094F94500401C01D184F84590FFF7ACFA11
:1032D00004A9684600F046F80028204612D0FFF7FF
:1032E0003DF900F0FDF92046FEF7CCFF0028A9D0FB
:1032F0009DB3FFF779FA606A50B3206B0068C0F1A4
:10330000380126E0FEF7BEFFE0B1206838B9FFF7CC
:103310006BFAA06800F070F90546FFF785FA04F132
:1033200024000499FFF76CFB2046FFF717F900F023
:10333000D7F9002886D1C8F80070BFF34F8FBFF3CC
:103340006F8F7FE72046FFF709F900F0C9F979E7A9
:103350000021A068FFF788FB9FE7FFE700208CE7CC
:1033600004ED00E02DE9F0410C46050011D0C4B198
:10337000FFF73AFA174BDA686E682068911B471C12
:1033800017D02F681B6A9F4219D0964217D8012484
:1033900010E0502080F31188BFF34F8FBFF36F8F81
:1033A000FEE7502080F31188BFF34F8FBFF36F8F7C
:1033B000FEE70024FFF738FA2046BDE8F081884296
:1033C00005D9401A20602846FFF70CFBF1E70020E2
:1033D0002060DCE7140000202DE9FF5F8346DDE973
:1033E0000E87994616468A469000FFF7EDF80500CD
:1033F0001CD05C20FFF7E8F8040014D000202563FF
:1034000084F85900CDE90240CDE900874B463246A9
:1034100051465846FEF79CFE2046FEF739FD012036
:1034200004B0BDE8F09F2846FFF712FA4FF0FF30D6
:10343000F6E7F0B585B0DDE90B640A9DA6B1DCB115
:103440005C2700972663022684F85960002604AFA3
:10345000CDE90246CDE90057FEF77AFE2046FEF799
:1034600017FD049805B0F0BD502080F31188BFF31C
:103470004F8FBFF36F8FFEE7502080F31188BFF3AB
:103480004F8FBFF36F8FFEE70548416919B1006B9D
:1034900018B10020704701207047022070470000DB
:1034A000140000200148C06870470000140000208C
:1034B0002DE9F0412E4C0027206B28B1A069401C5B
:1034C000A0613846BDE8F081E668761CE66013D15D
:1034D000606B006838B1502080F31188BFF34F8FC4
:1034E000BFF36F8FFEE7606BA16B6163A063206A1F
:1034F000401C2062FEF7B2FFA06ADFF878808642A7
:1035000009D3606B0068A0B1606BC068C56868686B
:10351000864211D2A0622068C06A00EB800158F890
:103520002100012800D90127E0690028C9D001271E
:10353000C7E74FF0FF30EDE7281DFFF7FAF8A86A5C
:1035400018B105F11800FFF7F4F8E86A216988421C
:1035500000D9206100EB800108EB8100291DFFF7F5
:1035600037F9E86A2168C96A8842CAD30127C8E7DF
:10357000140000208C02002070B504004FF0000100
:1035800033D01B4D2868844207D0502080F3118827
:10359000BFF34F8FBFF36F8FFEE7206D38B1401E32
:1035A0002065E36CE26A9A421FD040B11DE05020D2
:1035B00080F31188BFF34F8FBFF36F8FFEE7201D9D
:1035C000FFF7B7F8E06CE062C0F13800A061E06A94
:1035D0002969884200D92861064900EB800001EB87
:1035E0008000211DFFF7F4F80121084670BD00009E
:1035F000140000208C02002070B504004FF0000081
:103600002BD0194DE16A2A68D26A914226D2A0696C
:10361000002804DB2868C06AC0F13800A061134E9E
:1036200001EB8101606906EB8101884211D1201D07
:10363000FFF77FF82868C06AE0622969884200D9EC
:10364000286100EB800006EB8000211DFFF7C0F829
:1036500002E02868C06AE062012070BDE16C2A685F
:10366000D26A9142F8D370BD140000208C02002071
:1036700070B5C068C46854B104F118000646FFF77D
:1036800058F8144D286B50B13146134815E05020BE
:1036900080F31188BFF34F8FBFF36F8FFEE7201DBC
:1036A000FFF747F8E06A2969884200D928610B4989
:1036B00000EB800001EB8000211DFFF789F8E06A34
:1036C0002968C96A884202D90120E86170BD0020DA
:1036D00070BD000014000020140700208C020020A0
:1036E0002DE9F0472C4D00242746286B38B1FFF711
:1036F0007BF8286B401E2863286B40B146E05020C1
:1037000080F31188BFF34F8FBFF36F8FFEE7A96877
:10371000224E0120D1B3A6F5916980463068E0B110
:10372000F068C46804F11800FFF703F8201DFFF7E4
:1037300000F8E06A2969884200D9286100EB80011D
:1037400009EB8100211DFFF743F8E06A2968C96A87
:103750008842E3D3C5F81C80E0E70CB1FEF77EFE9B
:10376000AC694CB14FEA0806FFF7A2FE00B1EE616A
:10377000641EF9D10020A861E86938B10849012721
:1037800038070860BFF34F8FBFF36F8FFFF74CF818
:103790003846BDE8F0870000140000201407002020
:1037A00004ED00E010B586B0FEF7DAFB114C20689E
:1037B000B8B100200390049005AA04A903A8FEF75D
:1037C000D5FFDDE9032102208DE8070000230AA1CF
:1037D0000B48059AFFF72DFE606010B106B001207E
:1037E00010BD502080F31188BFF34F8FBFF36F8F50
:1037F000FEE7000050000020546D722053766300F5
:10380000392500082DE9FF411E46134602000A9D96
:103810004FF0000016D0144C2768002F0FD0CDE9D0
:1038200000130292062917DAFFF72EFE02284FF046
:1038300000030FD0002269462068FFF7DDFA04B0CC
:10384000BDE8F081502080F31188BFF34F8FBFF3A4
:103850006F8FFEE72A46EEE7002332466946384678
:10386000FFF77AFBEBE7000050000020BC380008AF
:103870000000000000000000000000000000000048
:10388000000200001800000000000000000000001E
:10389000010202030405060708090A0B0C0D0E0FAE
:1038A00010100000000000000000010203040607E1
:1038B000080900000000010203040000646566615D
:1038C000756C745461736B00E838000800000020C8
:1038D000B4000000C01700089C390008B4000020A4
:1038E000BC350000D01700080000000001000000F7
:1038F000100000000000000000127A00000000002C
:1039000000000000000000000000000000000000B7
:1039100000000000000000000000000000000000A7
:103920000000000000000000000000000000000097
:103930000000000000000000000000000000000087
:103940000000000000000000000000000000000077
:103950000000000000000000000000000000000067
:103960000000000000000000000000000000000057
:1039700000000000AAAAAAAA00000000000000009F
:103980000000000000000000000000000000000037
:0C3990000000000000000000000000002B
:04000005080000ED02
:00000001FF
